{
  "_format": "hh-sol-artifact-1",
  "contractName": "TheVault",
  "sourceName": "contracts/TheVault.sol",
  "abi": [
    {
      "inputs": [
        {
          "internalType": "address",
          "name": "",
          "type": "address"
        }
      ],
      "name": "amountStaked",
      "outputs": [
        {
          "internalType": "uint256",
          "name": "",
          "type": "uint256"
        }
      ],
      "stateMutability": "view",
      "type": "function"
    },
    {
      "inputs": [
        {
          "internalType": "address",
          "name": "_owner",
          "type": "address"
        }
      ],
      "name": "balanceOf",
      "outputs": [
        {
          "internalType": "uint256",
          "name": "",
          "type": "uint256"
        }
      ],
      "stateMutability": "view",
      "type": "function"
    },
    {
      "inputs": [
        {
          "internalType": "uint256",
          "name": "_tokenId",
          "type": "uint256"
        },
        {
          "internalType": "address",
          "name": "_contractAddress",
          "type": "address"
        }
      ],
      "name": "deposit",
      "outputs": [],
      "stateMutability": "nonpayable",
      "type": "function"
    },
    {
      "inputs": [],
      "name": "getArrayElements",
      "outputs": [
        {
          "components": [
            {
              "internalType": "uint256",
              "name": "tokenId",
              "type": "uint256"
            },
            {
              "internalType": "address",
              "name": "contractAddress",
              "type": "address"
            },
            {
              "internalType": "address",
              "name": "depositedBy",
              "type": "address"
            },
            {
              "internalType": "uint256",
              "name": "timestamp",
              "type": "uint256"
            }
          ],
          "internalType": "struct TheVault.Nft[]",
          "name": "",
          "type": "tuple[]"
        }
      ],
      "stateMutability": "view",
      "type": "function"
    },
    {
      "inputs": [
        {
          "internalType": "uint256",
          "name": "",
          "type": "uint256"
        }
      ],
      "name": "mainVault",
      "outputs": [
        {
          "internalType": "uint256",
          "name": "tokenId",
          "type": "uint256"
        },
        {
          "internalType": "address",
          "name": "contractAddress",
          "type": "address"
        },
        {
          "internalType": "address",
          "name": "depositedBy",
          "type": "address"
        },
        {
          "internalType": "uint256",
          "name": "timestamp",
          "type": "uint256"
        }
      ],
      "stateMutability": "view",
      "type": "function"
    },
    {
      "inputs": [
        {
          "internalType": "address",
          "name": "operator",
          "type": "address"
        },
        {
          "internalType": "address",
          "name": "from",
          "type": "address"
        },
        {
          "internalType": "uint256",
          "name": "tokenId",
          "type": "uint256"
        },
        {
          "internalType": "bytes",
          "name": "data",
          "type": "bytes"
        }
      ],
      "name": "onERC721Received",
      "outputs": [
        {
          "internalType": "bytes4",
          "name": "",
          "type": "bytes4"
        }
      ],
      "stateMutability": "view",
      "type": "function"
    },
    {
      "inputs": [],
      "name": "printRandNum",
      "outputs": [
        {
          "internalType": "uint256",
          "name": "",
          "type": "uint256"
        }
      ],
      "stateMutability": "view",
      "type": "function"
    },
    {
      "inputs": [],
      "name": "withdraw",
      "outputs": [
        {
          "internalType": "uint256",
          "name": "",
          "type": "uint256"
        }
      ],
      "stateMutability": "nonpayable",
      "type": "function"
    }
  ],
  "bytecode": "0x608060405234801561001057600080fd5b506110e9806100206000396000f3fe608060405234801561001057600080fd5b50600436106100885760003560e01c80636e553f651161005b5780636e553f651461012c57806370a0823114610148578063ef40a67014610178578063fcf4e9dc146101a857610088565b8063150b7a021461008d5780633ccfd60b146100bd5780633d655ba6146100db5780635529c4b6146100f9575b600080fd5b6100a760048036038101906100a29190610a26565b6101c6565b6040516100b49190610cf2565b60405180910390f35b6100c56101da565b6040516100d29190610d2d565b60405180910390f35b6100e36102ea565b6040516100f09190610d2d565b60405180910390f35b610113600480360381019061010e9190610aa1565b610304565b6040516101239493929190610d48565b60405180910390f35b61014660048036038101906101419190610aca565b610384565b005b610162600480360381019061015d91906109fd565b61056e565b60405161016f9190610d2d565b60405180910390f35b610192600480360381019061018d91906109fd565b610575565b60405161019f9190610d2d565b60405180910390f35b6101b061058d565b6040516101bd9190610cd0565b60405180910390f35b600063150b7a0260e01b9050949350505050565b6000806101eb6000805490506106ac565b90506000808281548110610228577f4e487b7100000000000000000000000000000000000000000000000000000000600052603260045260246000fd5b9060005260206000209060040201905060008160010160009054906101000a900473ffffffffffffffffffffffffffffffffffffffff1690508073ffffffffffffffffffffffffffffffffffffffff166342842e0e303385600001546040518463ffffffff1660e01b81526004016102a293929190610c99565b600060405180830381600087803b1580156102bc57600080fd5b505af11580156102d0573d6000803e3d6000fd5b505050506102dd836106ec565b8160000154935050505090565b6000806102fb6000805490506106ac565b90508091505090565b6000818154811061031457600080fd5b90600052602060002090600402016000915090508060000154908060010160009054906101000a900473ffffffffffffffffffffffffffffffffffffffff16908060020160009054906101000a900473ffffffffffffffffffffffffffffffffffffffff16908060030154905084565b60008190508073ffffffffffffffffffffffffffffffffffffffff166342842e0e3330866040518463ffffffff1660e01b81526004016103c693929190610c99565b600060405180830381600087803b1580156103e057600080fd5b505af11580156103f4573d6000803e3d6000fd5b50505050600060405180608001604052808581526020018473ffffffffffffffffffffffffffffffffffffffff1681526020013373ffffffffffffffffffffffffffffffffffffffff1681526020014281525090806001815401808255809150506001900390600052602060002090600402016000909190919091506000820151816000015560208201518160010160006101000a81548173ffffffffffffffffffffffffffffffffffffffff021916908373ffffffffffffffffffffffffffffffffffffffff16021790555060408201518160020160006101000a81548173ffffffffffffffffffffffffffffffffffffffff021916908373ffffffffffffffffffffffffffffffffffffffff160217905550606082015181600301555050600160003373ffffffffffffffffffffffffffffffffffffffff1673ffffffffffffffffffffffffffffffffffffffff168152602001908152602001600020600081548092919061056490610f09565b9190505550505050565b6000919050565b60016020528060005260406000206000915090505481565b60606000805480602002602001604051908101604052809291908181526020016000905b828210156106a35783829060005260206000209060040201604051806080016040529081600082015481526020016001820160009054906101000a900473ffffffffffffffffffffffffffffffffffffffff1673ffffffffffffffffffffffffffffffffffffffff1673ffffffffffffffffffffffffffffffffffffffff1681526020016002820160009054906101000a900473ffffffffffffffffffffffffffffffffffffffff1673ffffffffffffffffffffffffffffffffffffffff1673ffffffffffffffffffffffffffffffffffffffff168152602001600382015481525050815260200190600101906105b1565b50505050905090565b60008133426040516020016106c2929190610c6d565b6040516020818303038152906040528051906020012060001c6106e59190610f80565b9050919050565b6000805490508110610733576040517f08c379a000000000000000000000000000000000000000000000000000000000815260040161072a90610d0d565b60405180910390fd5b600060016000805490506107479190610e2d565b8154811061077e577f4e487b7100000000000000000000000000000000000000000000000000000000600052603260045260246000fd5b9060005260206000209060040201600082815481106107c6577f4e487b7100000000000000000000000000000000000000000000000000000000600052603260045260246000fd5b9060005260206000209060040201600082015481600001556001820160009054906101000a900473ffffffffffffffffffffffffffffffffffffffff168160010160006101000a81548173ffffffffffffffffffffffffffffffffffffffff021916908373ffffffffffffffffffffffffffffffffffffffff1602179055506002820160009054906101000a900473ffffffffffffffffffffffffffffffffffffffff168160020160006101000a81548173ffffffffffffffffffffffffffffffffffffffff021916908373ffffffffffffffffffffffffffffffffffffffff1602179055506003820154816003015590505060008054806108f1577f4e487b7100000000000000000000000000000000000000000000000000000000600052603160045260246000fd5b60019003818190600052602060002090600402016000808201600090556001820160006101000a81549073ffffffffffffffffffffffffffffffffffffffff02191690556002820160006101000a81549073ffffffffffffffffffffffffffffffffffffffff021916905560038201600090555050905550565b600061097e61097984610db2565b610d8d565b90508281526020810184848401111561099657600080fd5b6109a1848285610ec9565b509392505050565b6000813590506109b881611085565b92915050565b600082601f8301126109cf57600080fd5b81356109df84826020860161096b565b91505092915050565b6000813590506109f78161109c565b92915050565b600060208284031215610a0f57600080fd5b6000610a1d848285016109a9565b91505092915050565b60008060008060808587031215610a3c57600080fd5b6000610a4a878288016109a9565b9450506020610a5b878288016109a9565b9350506040610a6c878288016109e8565b925050606085013567ffffffffffffffff811115610a8957600080fd5b610a95878288016109be565b91505092959194509250565b600060208284031215610ab357600080fd5b6000610ac1848285016109e8565b91505092915050565b60008060408385031215610add57600080fd5b6000610aeb858286016109e8565b9250506020610afc858286016109a9565b9150509250929050565b6000610b128383610be3565b60808301905092915050565b610b2781610e61565b82525050565b610b3681610e61565b82525050565b610b4d610b4882610e61565b610f52565b82525050565b6000610b5e82610df3565b610b688185610e0b565b9350610b7383610de3565b8060005b83811015610ba4578151610b8b8882610b06565b9750610b9683610dfe565b925050600181019050610b77565b5085935050505092915050565b610bba81610e73565b82525050565b6000610bcd601a83610e1c565b9150610bd88261105c565b602082019050919050565b608082016000820151610bf96000850182610c38565b506020820151610c0c6020850182610b1e565b506040820151610c1f6040850182610b1e565b506060820151610c326060850182610c38565b50505050565b610c4181610ebf565b82525050565b610c5081610ebf565b82525050565b610c67610c6282610ebf565b610f76565b82525050565b6000610c798285610b3c565b601482019150610c898284610c56565b6020820191508190509392505050565b6000606082019050610cae6000830186610b2d565b610cbb6020830185610b2d565b610cc86040830184610c47565b949350505050565b60006020820190508181036000830152610cea8184610b53565b905092915050565b6000602082019050610d076000830184610bb1565b92915050565b60006020820190508181036000830152610d2681610bc0565b9050919050565b6000602082019050610d426000830184610c47565b92915050565b6000608082019050610d5d6000830187610c47565b610d6a6020830186610b2d565b610d776040830185610b2d565b610d846060830184610c47565b95945050505050565b6000610d97610da8565b9050610da38282610ed8565b919050565b6000604051905090565b600067ffffffffffffffff821115610dcd57610dcc61100f565b5b610dd68261103e565b9050602081019050919050565b6000819050602082019050919050565b600081519050919050565b6000602082019050919050565b600082825260208201905092915050565b600082825260208201905092915050565b6000610e3882610ebf565b9150610e4383610ebf565b925082821015610e5657610e55610fb1565b5b828203905092915050565b6000610e6c82610e9f565b9050919050565b60007fffffffff0000000000000000000000000000000000000000000000000000000082169050919050565b600073ffffffffffffffffffffffffffffffffffffffff82169050919050565b6000819050919050565b82818337600083830152505050565b610ee18261103e565b810181811067ffffffffffffffff82111715610f0057610eff61100f565b5b80604052505050565b6000610f1482610ebf565b91507fffffffffffffffffffffffffffffffffffffffffffffffffffffffffffffffff821415610f4757610f46610fb1565b5b600182019050919050565b6000610f5d82610f64565b9050919050565b6000610f6f8261104f565b9050919050565b6000819050919050565b6000610f8b82610ebf565b9150610f9683610ebf565b925082610fa657610fa5610fe0565b5b828206905092915050565b7f4e487b7100000000000000000000000000000000000000000000000000000000600052601160045260246000fd5b7f4e487b7100000000000000000000000000000000000000000000000000000000600052601260045260246000fd5b7f4e487b7100000000000000000000000000000000000000000000000000000000600052604160045260246000fd5b6000601f19601f8301169050919050565b60008160601b9050919050565b7f4e6f7420656e6f756768204e46547320617661696c61626c652e000000000000600082015250565b61108e81610e61565b811461109957600080fd5b50565b6110a581610ebf565b81146110b057600080fd5b5056fea2646970667358221220cc8dcca5fcf20eba62bebfc5935e28707e33661df04607dcf08024fbff7091db64736f6c63430008040033",
  "linkReferences": {},
  "deployedLinkReferences": {}
}